:100000000C9462000C948A000C948A000C948A0070
:100010000C948A000C948A000C948A000C948A0038
:100020000C948A000C942F010C948A000C948A0082
:100030000C948A000C948A000C948A000C948A0018
:100040000C94600A0C948A000C9428090C948A0081
:100050000C948A000C948A000C948A000C948A00F8
:100060000C948A000C948A000000000024002700F1
:100070002A0000000000250028002B0000000000DE
:1000800023002600290004040404040404040202DA
:100090000202020203030303030301020408102007
:1000A0004080010204081020010204081020000012
:1000B0000007000201000003040600000000000029
:1000C0000000290A11241FBECFEFD8E0DEBFCDBF4C
:1000D00012E0A0E0B1E0E0EFF6E102C005900D9281
:1000E000A03CB107D9F713E0A0ECB2E001C01D922B
:1000F000AF39B107E1F710E0C4ECD0E004C02297BB
:10010000FE010E94720BC23CD107C9F70E947F0713
:100110000C94760B0C9400000F931F938B019C01A1
:10012000809170008E7F809370008091B0008C7FF2
:100130008093B0008091B100877F8093B10080915F
:10014000B6008F7D8093B600809170008D7F809384
:1001500070008091B10084608093B1008091B10003
:100160008C7F8093B10086E090E09093CC028093E6
:10017000CB02011511052105310569F481E090E0FC
:10018000A0E0B0E08093C0029093C102A093C202AD
:10019000B093C30208C00093C0021093C102209321
:1001A000C2023093C3025093C5024093C4021F9110
:1001B0000F9108951092C6021092C7021092C802C1
:1001C0001092C9021092CA028091CB029091CC0287
:1001D0008093B200E0E7F0E0808181608083089541
:1001E0008091C6029091C702A091C802B091C90245
:1001F0000196A11DB11D8093C6029093C702A093E2
:10020000C802B093C9022091C6023091C702409142
:10021000C8025091C9028091C0029091C102A09180
:10022000C202B091C302281739074A075B07B0F032
:100230008091CA02882391F481E08093CA021092CF
:10024000C6021092C7021092C8021092C902E09131
:10025000C402F091C50209951092CA0208951F9236
:100260000F920FB60F9211242F933F934F935F93EA
:100270006F937F938F939F93AF93BF93EF93FF936E
:100280008091CB029091CC028093B2000E94F0004A
:10029000FF91EF91BF91AF919F918F917F916F915E
:1002A0005F914F913F912F910F900FBE0F901F9034
:1002B000189584E893E00E94CE098823D1F384E85E
:1002C00093E00E94E20908951F93CF93DF9384E89F
:1002D00093E060E071E00E942A0884E893E065E022
:1002E00071E00E942A08C3EFD2E01AE00E9459018F
:1002F000992787FD9095C0978A30910510F48883DF
:1003000001C01883219682E0CA3FD80779F7DF91B0
:10031000CF911F91089584E893E064E371E00E9417
:100320002A080895EF92FF920F931F9384E893E0B9
:1003300060E071E00E942A0884E893E00E940A0AC3
:1003400084E893E063E871E00E942A0884E893E07F
:100350000E94CE098823D1F384E893E00E94E20949
:1003600020EDE22EE80E4E2D50E060E070E084E8D3
:1003700093E02AE030E00E94130984E893E00E94B1
:10038000CE098823D1F384E893E00E94E20990ED3E
:10039000F92EF80E4F2D50E060E070E084E893E015
:1003A0002AE030E00E94130984E893E00E94CE091D
:1003B0008823D1F384E893E00E94E209082F0053D8
:1003C000402F50E060E070E084E893E02AE030E005
:1003D0000E94130984E893E00E94CE098823D1F398
:1003E00084E893E00E94E209182F1053412F50E057
:1003F00060E070E084E893E02AE030E00E941309B6
:1004000084E893E06AEB71E00E942A082AE0E29E09
:10041000C00111248F0D911D9093F1028093F00281
:10042000029F90011124210F311D3093EF02209380
:10043000EE021092ED021092EC021092DF02109286
:10044000DE021F910F91FF90EF900895EF92FF92BF
:100450000F931F9384E893E00E940A0A84E893E0D4
:1004600065EC71E00E942A0884E893E00E94CE09BE
:100470008823D1F384E893E00E94E20940EDE42E62
:10048000E80E4E2D50E060E070E084E893E02AE052
:1004900030E00E94130984E893E00E94CE0988238B
:1004A000D1F384E893E00E94E20930EDF32EF80ED8
:1004B0004F2D50E060E070E084E893E02AE030E007
:1004C0000E94130984E893E00E94CE098823D1F3A7
:1004D00084E893E00E94E209082F0053402F50E087
:1004E00060E070E084E893E02AE030E00E941309C5
:1004F00084E893E00E94CE098823D1F384E893E056
:100500000E94E209182F1053412F50E060E070E084
:1005100084E893E02AE030E00E94130984E893E045
:100520006AEB71E00E942A082AE0E29EC0011124D1
:100530008F0D911D9093B4028093B302029F90019E
:100540001124210F311D3093B2022093B102109279
:10055000B0021092AF021F910F91FF90EF9008959B
:1005600083309105F1F0843091054CF48130910590
:1005700091F08230910594F4892B29F1089585300A
:100580009105A9F0853091057CF08630910591F0B8
:100590000797F1F412C080919F0211C08091A102CF
:1005A0000EC08091A3020BC08091A50208C080916B
:1005B000A70205C08091A90202C08091AB0261E050
:1005C0000E94A60708958091AD0261E00E94A607EF
:1005D000089583309105F1F0843091054CF4813019
:1005E000910591F08230910594F4892B29F10895B9
:1005F00085309105A9F0853091057CF08630910514
:1006000091F00797F1F412C080919F0211C0809180
:10061000A1020EC08091A3020BC08091A50208C068
:100620008091A70205C08091A90202C08091AB020F
:1006300060E00E94A60708958091AD0260E00E94EC
:10064000A607089580919F0261E00E94A60780910D
:10065000A10261E00E94A6078091A30261E00E94CE
:10066000A6078091A50261E00E94A6078091A702DB
:1006700061E00E94A6078091A90261E00E94A6079E
:100680008091AB0261E00E94A6078091AD0261E01B
:100690000E94A6070895EF92FF920F931F937C018B
:1006A0008B010E942203B801F3E076956795FA95D5
:1006B000E1F7617080919D020E94A607B8017695CE
:1006C000679576956795617080919B020E94A60759
:1006D000B801769567956170809199020E94A6078E
:1006E0000170107080919702602F0E94A607C701C9
:1006F0000E94E902C7010E94B0021F910F91FF9072
:10070000EF90089580E090E06AE070E00E944B0373
:1007100081E090E06AE070E00E944B0382E090E0AC
:100720006AE070E00E944B0383E090E06AE070E0D2
:100730000E944B0384E090E06AE070E00E944B036B
:1007400085E090E06AE070E00E944B0386E090E074
:100750006AE070E00E944B0387E090E06AE070E09E
:100760000E944B0308952091EC023091ED02C901E3
:100770006AE070E00E940C0B9093E1028093E0022B
:100780002A30310554F0C9016AE070E00E940C0B78
:100790007093E7026093E60204C01092E7021092A1
:1007A000E6022091EE023091EF02C9016AE070E0AA
:1007B0000E940C0B9093E3028093E2022A303105F1
:1007C00054F0C9016AE070E00E940C0B7093E902DA
:1007D0006093E80204C01092E9021092E8022091AE
:1007E000F0023091F102C9016AE070E00E940C0B46
:1007F0009093E5028093E4022A30310554F0C90158
:100800006AE070E00E940C0B7093EB026093EA02C6
:1008100004C01092EB021092EA0280E090E068E0DF
:1008200070E00E944B036091DE027091DF0281E074
:1008300090E00E944B036091E0027091E10282E03F
:1008400090E00E944B036091E6027091E70283E022
:1008500090E00E944B036091E2027091E30284E019
:1008600090E00E944B036091E8027091E90285E0FC
:1008700090E00E944B036091E4027091E50286E0F3
:1008800090E00E944B036091EA027091EB0287E0D6
:1008900090E00E944B03089580E090E06AE070E0F1
:1008A0000E944B036091F902772767FD709581E004
:1008B00090E00E944B036091F802772767FD7095E6
:1008C00082E090E00E944B036091F702772767FD7A
:1008D000709583E090E00E944B036091F6027727C9
:1008E00067FD709584E090E00E944B036091F502F3
:1008F000772767FD709585E090E00E944B0360913B
:10090000F402772767FD709586E090E00E944B0324
:100910006091F302772767FD709587E090E00E9471
:100920004B0308958091CF029091D002892B09F05A
:1009300051C08091CD029091CE020A9721F410927D
:10094000CE021092CD026091CD027091CE0281E074
:1009500090E00E944B036091CD027091CE0282E044
:1009600090E00E944B036091CD027091CE0283E033
:1009700090E00E944B036091CD027091CE0284E022
:1009800090E00E944B036091CD027091CE0285E011
:1009900090E00E944B036091CD027091CE0286E000
:1009A00090E00E944B036091CD027091CE0287E0EF
:1009B00090E00E944B0380E090E068E070E00E94CD
:1009C0004B038091CD029091CE0201969093CE027E
:1009D0008093CD0208952091AF023091B002C901F9
:1009E0006AE070E00E940C0B9093D2028093D102D7
:1009F0002A30310554F0C9016AE070E00E940C0B06
:100A00007093D8026093D70204C01092D80210925B
:100A1000D7022091B1023091B202C9016AE070E0C0
:100A20000E940C0B9093D4028093D3022A3031059C
:100A300054F0C9016AE070E00E940C0B7093DA0276
:100A40006093D90204C01092DA021092D902209168
:100A5000B3023091B402C9016AE070E00E940C0B4D
:100A60009093D6028093D5022A30310554F0C90103
:100A70006AE070E00E940C0B7093DC026093DB0272
:100A800004C01092DC021092DB0280E090E068E08B
:100A900070E00E944B036091CF027091D00281E020
:100AA00090E00E944B036091D1027091D20282E0EB
:100AB00090E00E944B036091D7027091D80283E0CE
:100AC00090E00E944B036091D3027091D40284E0C5
:100AD00090E00E944B036091D9027091DA0285E0A8
:100AE00090E00E944B036091D5027091D60286E09F
:100AF00090E00E944B036091DB027091DC0287E082
:100B000090E00E944B0308958091DD02813009F04E
:100B10004EC08091DE029091DF0201979093DF0238
:100B20008093DE0297FF43C089E090E09093DF025C
:100B30008093DE028091EC029091ED0201979093F8
:100B4000ED028093EC0297FF32C02BE330E030934C
:100B5000ED022093EC028091EE029091EF0201975A
:100B60009093EF028093EE0297FF21C08091F002F4
:100B70009091F10201979093F1028093F0023093EB
:100B8000EF022093EE0297FF12C01092DD02109246
:100B9000F1021092F0021092EF021092EE02109207
:100BA000ED021092EC021092DF021092DE028091B0
:100BB000F0029091F102181619063CF18091EE02B4
:100BC0009091EF021816190604F18091EC029091B1
:100BD000ED0218161906CCF08091DE029091DF022A
:100BE0001816190694F01092DD021092F10210927C
:100BF000F0021092EF021092EE021092ED021092AB
:100C0000EC021092DF021092DE028091CF029091EE
:100C1000D00201969093D0028093CF020B978CF173
:100C20001092D0021092CF028091AF029091B00248
:100C300001969093B0028093AF02CC9714F110927A
:100C4000B0021092AF028091B1029091B20201966F
:100C50009093B2028093B102CC979CF08091B30242
:100C60009091B40201969093B4028093B3021092D3
:100C7000B2021092B102489724F01092B40210927E
:100C8000B3028091FC029091FD0282309105A1F0A7
:100C9000833091052CF4009749F00197A9F409C01D
:100CA0008330910561F0049779F40CC00E948203AF
:100CB00008950E94EB0408950E94B30308950E94D2
:100CC0004C0408950E949204089561E070E080E071
:100CD00090E00E94A80A84E893E00E94CE0988234D
:100CE00009F4A5C084E893E00E94E209843691F1FA
:100CF000853650F4813309F485C0833609F44CC03D
:100D0000803309F094C089C0803799F1813720F48D
:100D10008F3609F08CC052C0833721F0843709F038
:100D200086C003C00E9426026AC084E893E066E0A1
:100D300072E00E942A088091FC029091FD0290933B
:100D4000FF028093FE0281E090E09093FD02809389
:100D5000FC0255C00E9464010E948B018091FC023C
:100D60009091FD029093FF028093FE0283E090E059
:100D70004FC084E893E06DE172E00E9449080E9450
:100D80008B018091FC029091FD029093FF02809371
:100D9000FE0284E090E03CC00E94920181E08093DA
:100DA000DD020E948B018091FC029091FD029093E4
:100DB000FF028093FE0282E090E02AC08091FC0254
:100DC0009091FD02009769F48091FE029091FF02DC
:100DD0009093FD028093FC0284E893E067E372E065
:100DE0000CC09093FF028093FE021092FD021092BD
:100DF000FC0284E893E066E472E00E9449080E94E5
:100E00008B0108951092FF021092FE0281E090E0A3
:100E10009093FD028093FC02089581E090E090930E
:100E2000FF028093FE021092FD021092FC020895D0
:100E30000F931F938091AD0261E00E94860780911D
:100E4000970261E00E9486078091990261E00E940A
:100E5000860780919B0261E00E94860780919D0237
:100E600061E00E94860780919F0261E00E948607F0
:100E70008091A10261E00E9486078091A30261E057
:100E80000E9486078091A50261E00E9486078091FA
:100E9000A70261E00E9486078091A90261E00E949A
:100EA00086078091AB0261E00E94860704E813E0A8
:100EB000C80140E855E260E070E00E946509C801A1
:100EC00066E572E00E942A08C8016AE672E00E94A4
:100ED000490864E670E080E090E044E855E00E9454
:100EE0008C000E94DA000E948203C80168E872E068
:100EF0000E9449080E948B011F910F9108950E9442
:100F0000D20A0E9418070E946506FDCF282F30E004
:100F1000C90186569F4FFC0194912A573F4FF90112
:100F20008491882391F0E82FF0E0EE0FFF1FE8593D
:100F3000FF4FA591B491662329F48C919095892354
:100F40008C9308958C91892B8C930895482F50E0B1
:100F5000CA0182559F4FFC012491CA0186569F4FBA
:100F6000FC0194914A575F4FFA0134913323D1F138
:100F7000222331F1233021F4809180008F7705C046
:100F8000243031F4809180008F7D8093800018C0E0
:100F9000213019F484B58F7704C0223021F484B550
:100FA0008F7D84BD0DC0263021F48091B0008F77F5
:100FB00005C0273029F48091B0008F7D8093B00068
:100FC000E32FF0E0EE0FFF1FEE58FF4FA591B49115
:100FD000662329F48C91909589238C9308958C91A4
:100FE000892B8C9308950F931F93CF93DF938C01DC
:100FF000EB0109C02196D801ED91FC910190F0819F
:10100000E02DC801099568816623A1F7DF91CF9192
:101010001F910F910895EF92FF920F931F93CF931B
:10102000DF938C017B01EA010CC0D7016D917D013A
:10103000D801ED91FC910190F081E02DC801099556
:101040002197209791F7DF91CF911F910F91FF90FA
:10105000EF900895DC01ED91FC910280F381E02D89
:10106000099508950F931F938C01DC01ED91FC917C
:101070000190F081E02D6DE00995D801ED91FC9192
:101080000190F081E02DC8016AE009951F910F9150
:1010900008950F931F938C010E942A08C8010E9493
:1010A00032081F910F9108952F923F924F925F92B5
:1010B0006F927F928F929F92AF92BF92CF92DF9268
:1010C000EF92FF920F931F93DF93CF93CDB7DEB7CD
:1010D000A0970FB6F894DEBF0FBECDBF1C016A010A
:1010E0007B01411551056105710549F4DC01ED9164
:1010F000FC910190F081E02D60E3099554C08824B3
:1011000099245401422E55246624772401E010E0EE
:101110000C0F1D1F080D191DC701B601A301920177
:101120000E941F0BF80160830894811C911CA11C74
:10113000B11CC701B601A30192010E941F0BC90196
:10114000DA016C017D01C114D104E104F104F1F66E
:1011500081E0E82EF12CEC0EFD1EE80CF91C3E019E
:101160000894611C711CD501C4010197A109B10942
:101170006C01C818D90814C0F601EE0DFF1D60817E
:101180006A3010F4605D01C0695CD101ED91FC91A1
:101190000190F081E02DC10109950894E108F10862
:1011A0006E147F0449F7A0960FB6F894DEBF0FBE09
:1011B000CDBFCF91DF911F910F91FF90EF90DF9006
:1011C000CF90BF90AF909F908F907F906F905F90E7
:1011D0004F903F902F900895EF92FF920F931F939F
:1011E000CF93DF93EC017A018B0177FF0FC0E88189
:1011F000F9810190F081E02D6DE20995109500953F
:10120000F094E094E11CF11C011D111DCE01B80108
:10121000A7012AE00E945408DF91CF911F910F91FE
:10122000FF90EF900895DC012115310541F4ED9117
:10123000FC910190F081E02D642F099508952A30EA
:10124000310519F40E94EC0808950E94540808958D
:101250001F920F920FB60F9211242F933F934F932B
:101260005F936F937F938F939F93AF93BF93EF930E
:10127000FF934091C600E0918003F0918103CF017C
:10128000019660E870E00E940C0B9C018091820343
:10129000909183032817390739F0E050FD4F4083C0
:1012A0003093810320938003FF91EF91BF91AF9121
:1012B0009F918F917F916F915F914F913F912F916E
:1012C0000F900FBE0F901F901895AF92BF92CF92C4
:1012D000DF92EF92FF920F931F93CF93DF936C01F6
:1012E0007A018B01DC011496AD90BC901597CB016F
:1012F000BA0122E030E040E050E00E94410B205C67
:101300003D4B404F5F4FCA01B901A80197010E94B0
:10131000410BC901DA010197A109B109292F3A2F1F
:101320004B2F552747FD5A950196A11DB11DE5018B
:101330002883E601EE81FF8181508083EA85FB8569
:10134000208141E050E0CA010E8402C0880F991F3D
:101350000A94E2F7282B2083EA85FB852081CA01C5
:101360000F8402C0880F991F0A94E2F7282B20836C
:10137000EA85FB858081088802C0440F551F0A94C6
:10138000E2F7842B8083DF91CF911F910F91FF9023
:10139000EF90DF90CF90BF90AF900895DC01129650
:1013A000ED91FC911397E058FF4F819191918058F6
:1013B0009F4F20813181821B930B60E870E00E9477
:1013C0000C0B0895CF93DF93DC011296ED91FC9105
:1013D0001397EF01CE57DF4F48815981E058FF4FF7
:1013E00080819181E058F0408417950719F42FEF20
:1013F0003FEF0CC0E40FF51F2081CA01019660E8A1
:1014000070E00E940C0B9983888330E0C901DF9162
:10141000CF910895DC011296ED91FC911397EE5750
:10142000FF4F80819181929382930895FC01A08562
:10143000B18521898C9190E0022E02C09595879507
:101440000A94E2F780FFF6CF0484F585E02D6083EF
:10145000089589EB92E0909385038093840380E064
:1014600093E0909387038093860385EC90E09093BC
:1014700089038093880384EC90E090938B0380939E
:101480008A0380EC90E090938D0380938C0381EC31
:1014900090E090938F0380938E0386EC90E090937E
:1014A00091038093900384E08093920383E0809380
:1014B000930387E08093940385E0809395030895D8
:1014C0001F920F920FB60F9211242F933F938F9379
:1014D0009F93AF93BF9380919A0390919B03A091A8
:1014E0009C03B0919D0330919E030196A11DB11DF7
:1014F000232F2D5F2D3720F02D570196A11DB11DF3
:1015000020939E0380939A0390939B03A0939C0344
:10151000B0939D038091960390919703A0919803B7
:10152000B09199030196A11DB11D809396039093EC
:101530009703A0939803B0939903BF91AF919F91A4
:101540008F913F912F910F900FBE0F901F90189584
:10155000EF92FF920F931F937B018C018FB7F8944A
:1015600040919A0350919B0360919C0370919D035D
:101570008FBF2FB7F89480919A0390919B03A0910D
:101580009C03B0919D032FBF841B950BA60BB70B3B
:10159000E816F9060A071B0760F71F910F91FF90E5
:1015A000EF900895789484B5826084BD84B581609D
:1015B00084BD85B5826085BD85B5816085BDEEE65B
:1015C000F0E0808181608083E1E8F0E080818260EA
:1015D0008083808181608083E0E8F0E080818160A9
:1015E0008083E1EBF0E0808184608083E0EBF0E0D9
:1015F000808181608083EAE7F0E08081846080837D
:101600008081826080838081816080838081806826
:1016100080831092C100089597FB092E07260AD0F7
:1016200077FD04D049D006D000201AF4709561955A
:101630007F4F0895F6F7909581959F4F0895A1E209
:101640001A2EAA1BBB1BFD010DC0AA1FBB1FEE1F3C
:10165000FF1FA217B307E407F50720F0A21BB30B87
:10166000E40BF50B661F771F881F991F1A9469F703
:1016700060957095809590959B01AC01BD01CF015F
:10168000089597FB092E05260ED057FD04D0D7DF0D
:101690000AD0001C38F450954095309521953F4F65
:1016A0004F4F5F4F0895F6F790958095709561952F
:1016B0007F4F8F4F9F4F0895AA1BBB1B51E107C05F
:1016C000AA1FBB1FA617B70710F0A61BB70B881FD2
:1016D000991F5A95A9F780959095BC01CD01089561
:1016E000EE0FFF1F0590F491E02D0994F894FFCFC1
:1016F0000A0A0A0A00506C6561736520656E74659C
:101700007220746865203720646967697473207972
:101710006F752077616E7420746F20646973706CCC
:1017200061793A000A4D656E753A0A202853296599
:10173000742054696D6520202844296973706C6198
:1017400079446967697473205465737428502961FA
:10175000747465726E20284F296666202843296FAD
:10176000756E7420446F776E20285429696D65204A
:10177000200A00506C6561736520696E7075742075
:1017800074686520636F756E74646F776E2074691A
:101790006D6520696E2074686520666F726D206FBC
:1017A000662048484D4D3A200A000A205468616E70
:1017B0006B73210A00506C6561736520696E7075EA
:1017C00074207468652074696D6520696E20746882
:1017D0006520666F726D206F662048484D4D3A2037
:1017E0000A005468652054696D652069733A2000C9
:1017F0003A0030000A00446973706C6179696E6761
:101800002054696D652E2E2E0A0A0A0A0045786555
:10181000637574696E6720546573742050617474C5
:1018200065726E2E2E2E00506F776572696E67207E
:101830006F6E2E2E2E00506F776572696E67206F67
:1018400066662E2E2E00436C6F636B20537461729C
:1018500074696E67205570210A00496E6974696168
:101860006C697A696E672074696D657220696E743F
:101870006572727570742E00506F776572696E674D
:101880002055702E2E2E00020003000400050007D4
:1018900000080009000A000B000C000D00060038CB
:1018A0000022000C0000000000160AF3070B0800DD
:00000001FF
